{
  "transactions": [
    {
      "hash": "0x934170e74f4c909d34877a063fa40f319d58c71076c7f321b68d108df23f9642",
      "transactionType": "CALL",
      "contractName": null,
      "contractAddress": "0x08c8b8417313ff130526862f90cd822b55002d72",
      "function": "register(string,address,bool)",
      "arguments": [
        "uint8 kycLevel,bytes2 country,bool accredited,uint8 investorType,uint64 expiry",
        "0x0000000000000000000000000000000000000000",
        "true"
      ],
      "transaction": {
        "from": "0xf9946775891a24462cd4ec885d0d4e2675c84355",
        "to": "0x08c8b8417313ff130526862f90cd822b55002d72",
        "gas": "0x36c5a",
        "value": "0x0",
        "input": "0x60d7a278000000000000000000000000000000000000000000000000000000000000006000000000000000000000000000000000000000000000000000000000000000000000000000000000000000000000000000000000000000000000000000000001000000000000000000000000000000000000000000000000000000000000004e75696e7438206b79634c6576656c2c62797465733220636f756e7472792c626f6f6c20616363726564697465642c75696e743820696e766573746f72547970652c75696e74363420657870697279000000000000000000000000000000000000",
        "nonce": "0x3",
        "chainId": "0x61"
      },
      "additionalContracts": [],
      "isFixedGasLimit": false
    },
    {
      "hash": "0xb4a035dff89ed49a19f15e767149233bf065ba5eccf8b5faa29a94c4ece99e71",
      "transactionType": "CALL",
      "contractName": null,
      "contractAddress": "0x6c2270298b1e6046898a322acb3cbad6f99f7cbd",
      "function": "attest((bytes32,(address,uint64,bool,bytes32,bytes,uint256)))",
      "arguments": [
        "(0xa72370606965bcdb25a1930828933a52fdcb9c2c59742c2806b5af35d4e87989, (0xf9946775891a24462cD4ec885d0D4E2675C84355, 0, true, 0x0000000000000000000000000000000000000000000000000000000000000000, 0x00000000000000000000000000000000000000000000000000000000000000025553000000000000000000000000000000000000000000000000000000000000000000000000000000000000000000000000000000000000000000000000000100000000000000000000000000000000000000000000000000000000000000010000000000000000000000000000000000000000000000000000000000000000, 0))"
      ],
      "transaction": {
        "from": "0xf9946775891a24462cd4ec885d0d4e2675c84355",
        "to": "0x6c2270298b1e6046898a322acb3cbad6f99f7cbd",
        "gas": "0x62aa3",
        "value": "0x0",
        "input": "0xf17325e70000000000000000000000000000000000000000000000000000000000000020a72370606965bcdb25a1930828933a52fdcb9c2c59742c2806b5af35d4e879890000000000000000000000000000000000000000000000000000000000000040000000000000000000000000f9946775891a24462cd4ec885d0d4e2675c8435500000000000000000000000000000000000000000000000000000000000000000000000000000000000000000000000000000000000000000000000000000001000000000000000000000000000000000000000000000000000000000000000000000000000000000000000000000000000000000000000000000000000000c0000000000000000000000000000000000000000000000000000000000000000000000000000000000000000000000000000000000000000000000000000000a000000000000000000000000000000000000000000000000000000000000000025553000000000000000000000000000000000000000000000000000000000000000000000000000000000000000000000000000000000000000000000000000100000000000000000000000000000000000000000000000000000000000000010000000000000000000000000000000000000000000000000000000000000000",
        "nonce": "0x4",
        "chainId": "0x61"
      },
      "additionalContracts": [],
      "isFixedGasLimit": false
    },
    {
      "hash": "0x270d277fea09af7632d6e258a40122076d76ff574ba42875744d6abd713f7d77",
      "transactionType": "CALL",
      "contractName": null,
      "contractAddress": "0xe5fe2b794e4c1370217e0269f124bab39f9bbd51",
      "function": "setAttestationUID(address,bytes32)",
      "arguments": [
        "0xf9946775891a24462cD4ec885d0D4E2675C84355",
        "0xbe1e7e97962e4642c72cade5cf7257604814fb22d7d079c162f585b03b6f01dd"
      ],
      "transaction": {
        "from": "0xf9946775891a24462cd4ec885d0d4e2675c84355",
        "to": "0xe5fe2b794e4c1370217e0269f124bab39f9bbd51",
        "gas": "0x103b2",
        "value": "0x0",
        "input": "0x6c9c6b46000000000000000000000000f9946775891a24462cd4ec885d0d4e2675c84355be1e7e97962e4642c72cade5cf7257604814fb22d7d079c162f585b03b6f01dd",
        "nonce": "0x5",
        "chainId": "0x61"
      },
      "additionalContracts": [],
      "isFixedGasLimit": false
    }
  ],
  "receipts": [
    {
      "status": "0x1",
      "cumulativeGasUsed": "0x5a4e7",
      "logs": [
        {
          "address": "0x08c8b8417313ff130526862f90cd822b55002d72",
          "topics": [
            "0xd0b86852e21f9e5fa4bc3b0cff9757ffe243d50c4b43968a42202153d651ea5e",
            "0xa72370606965bcdb25a1930828933a52fdcb9c2c59742c2806b5af35d4e87989",
            "0x000000000000000000000000f9946775891a24462cd4ec885d0d4e2675c84355"
          ],
          "data": "0x0000000000000000000000000000000000000000000000000000000000000020a72370606965bcdb25a1930828933a52fdcb9c2c59742c2806b5af35d4e87989000000000000000000000000000000000000000000000000000000000000000000000000000000000000000000000000000000000000000000000000000000010000000000000000000000000000000000000000000000000000000000000080000000000000000000000000000000000000000000000000000000000000004e75696e7438206b79634c6576656c2c62797465733220636f756e7472792c626f6f6c20616363726564697465642c75696e743820696e766573746f72547970652c75696e74363420657870697279000000000000000000000000000000000000",
          "blockHash": "0x55d99874b00d34d7b64c1ebd56966957b5822799310e3e91a566b677ea9802a4",
          "blockNumber": "0x5e55ec2",
          "blockTimestamp": "0x69cba2b8",
          "transactionHash": "0x934170e74f4c909d34877a063fa40f319d58c71076c7f321b68d108df23f9642",
          "transactionIndex": "0x2",
          "logIndex": "0xa",
          "removed": false
        }
      ],
      "logsBloom": "0x00000000000000000000000000000000000000000000000000000000010800000000000000000008000000000000000000000001000000000001000000000000000000000000000000000000000000000000000000000000000000000020000000000000000000000000000000000000000000000000000000000000000000000000000000000000000000000000040000100000000000800000000000000000000000000000000010000000000000000000000000000000000000000000000000000000000000000000000000000000020000000000000000000000000000000000000000000000000000000000000000000000000000000040000000000000",
      "type": "0x2",
      "transactionHash": "0x934170e74f4c909d34877a063fa40f319d58c71076c7f321b68d108df23f9642",
      "transactionIndex": "0x2",
      "blockHash": "0x55d99874b00d34d7b64c1ebd56966957b5822799310e3e91a566b677ea9802a4",
      "blockNumber": "0x5e55ec2",
      "gasUsed": "0x27a77",
      "effectiveGasPrice": "0x5f5e100",
      "from": "0xf9946775891a24462cd4ec885d0d4e2675c84355",
      "to": "0x08c8b8417313ff130526862f90cd822b55002d72",
      "contractAddress": null
    },
    {
      "status": "0x1",
      "cumulativeGasUsed": "0x9dc50",
      "logs": [
        {
          "address": "0x6c2270298b1e6046898a322acb3cbad6f99f7cbd",
          "topics": [
            "0x8bf46bf4cfd674fa735a3d63ec1c9ad4153f033c290341f3a588b75685141b35",
            "0x000000000000000000000000f9946775891a24462cd4ec885d0d4e2675c84355",
            "0x000000000000000000000000f9946775891a24462cd4ec885d0d4e2675c84355",
            "0xa72370606965bcdb25a1930828933a52fdcb9c2c59742c2806b5af35d4e87989"
          ],
          "data": "0x9802cb9f369ff50926deefa20ee481af1f540f7b151b078746fd4e5b1336a4a1",
          "blockHash": "0x55d99874b00d34d7b64c1ebd56966957b5822799310e3e91a566b677ea9802a4",
          "blockNumber": "0x5e55ec2",
          "blockTimestamp": "0x69cba2b8",
          "transactionHash": "0xb4a035dff89ed49a19f15e767149233bf065ba5eccf8b5faa29a94c4ece99e71",
          "transactionIndex": "0x3",
          "logIndex": "0xb",
          "removed": false
        }
      ],
      "logsBloom": "0x00000000000000000000000040000000000000000000000000000000000000000000000000000008000000000000000000000000000000000000000000100000000000000000000000000000000000000000000000000000000000000020000000800000000000000000000000000000000000000000000000000000000000000000000000000000000000000000040000100000000000000000000000000000000000000000000000000000000000000000000010000000000000000010000000000000000000000000000000000000020000000004000000000000000000000000000000000000000000000000000000000000000000000040000000000000",
      "type": "0x2",
      "transactionHash": "0xb4a035dff89ed49a19f15e767149233bf065ba5eccf8b5faa29a94c4ece99e71",
      "transactionIndex": "0x3",
      "blockHash": "0x55d99874b00d34d7b64c1ebd56966957b5822799310e3e91a566b677ea9802a4",
      "blockNumber": "0x5e55ec2",
      "gasUsed": "0x43769",
      "effectiveGasPrice": "0x5f5e100",
      "from": "0xf9946775891a24462cd4ec885d0d4e2675c84355",
      "to": "0x6c2270298b1e6046898a322acb3cbad6f99f7cbd",
      "contractAddress": null
    },
    {
      "status": "0x1",
      "cumulativeGasUsed": "0xa9854",
      "logs": [
        {
          "address": "0xe5fe2b794e4c1370217e0269f124bab39f9bbd51",
          "topics": [
            "0x48f8010bddd5fa20f34904cafc683de5208622c9008b4cbcc912d84237fdd2de",
            "0x000000000000000000000000f9946775891a24462cd4ec885d0d4e2675c84355"
          ],
          "data": "0xbe1e7e97962e4642c72cade5cf7257604814fb22d7d079c162f585b03b6f01dd",
          "blockHash": "0x55d99874b00d34d7b64c1ebd56966957b5822799310e3e91a566b677ea9802a4",
          "blockNumber": "0x5e55ec2",
          "blockTimestamp": "0x69cba2b8",
          "transactionHash": "0x270d277fea09af7632d6e258a40122076d76ff574ba42875744d6abd713f7d77",
          "transactionIndex": "0x4",
          "logIndex": "0xc",
          "removed": false
        }
      ],
      "logsBloom": "0x00000000000000000000000000000010000002000000000000000000000000000001000000000000000000000000000000000000000000000000000000000000000000000000000000000000000000000000000000000000000000000000000000000000000000000000000000000000000000000000000400000000000000000000000000000000000000000000040000000000000000000000000000000000000000000000000000000000000000000000000000000000001000000000000000000000000000000000000000000100020000000000000000000000000000000000000000000000000000000000000000000000000000000040000000000000",
      "type": "0x2",
      "transactionHash": "0x270d277fea09af7632d6e258a40122076d76ff574ba42875744d6abd713f7d77",
      "transactionIndex": "0x4",
      "blockHash": "0x55d99874b00d34d7b64c1ebd56966957b5822799310e3e91a566b677ea9802a4",
      "blockNumber": "0x5e55ec2",
      "gasUsed": "0xbc04",
      "effectiveGasPrice": "0x5f5e100",
      "from": "0xf9946775891a24462cd4ec885d0d4e2675c84355",
      "to": "0xe5fe2b794e4c1370217e0269f124bab39f9bbd51",
      "contractAddress": null
    }
  ],
  "libraries": [],
  "pending": [],
  "returns": {},
  "timestamp": 1774953145813,
  "chain": 97,
  "commit": "392518c"
}